{
  "contractName": "Adx",
  "abi": [
    {
      "constant": true,
      "inputs": [
        {
          "name": "",
          "type": "uint256"
        }
      ],
      "name": "bids",
      "outputs": [
        {
          "name": "",
          "type": "uint256"
        }
      ],
      "payable": false,
      "stateMutability": "view",
      "type": "function"
    },
    {
      "constant": true,
      "inputs": [
        {
          "name": "",
          "type": "uint256"
        }
      ],
      "name": "advs",
      "outputs": [
        {
          "name": "",
          "type": "address"
        }
      ],
      "payable": false,
      "stateMutability": "view",
      "type": "function"
    },
    {
      "constant": false,
      "inputs": [
        {
          "name": "adId",
          "type": "uint256"
        },
        {
          "name": "bid",
          "type": "uint256"
        },
        {
          "name": "budget",
          "type": "uint256"
        }
      ],
      "name": "createAd",
      "outputs": [],
      "payable": true,
      "stateMutability": "payable",
      "type": "function"
    },
    {
      "constant": true,
      "inputs": [],
      "name": "getAd",
      "outputs": [
        {
          "name": "",
          "type": "uint256"
        }
      ],
      "payable": false,
      "stateMutability": "view",
      "type": "function"
    },
    {
      "constant": false,
      "inputs": [
        {
          "name": "adId",
          "type": "uint256"
        },
        {
          "name": "bid",
          "type": "uint256"
        }
      ],
      "name": "modifyBid",
      "outputs": [],
      "payable": false,
      "stateMutability": "nonpayable",
      "type": "function"
    },
    {
      "constant": false,
      "inputs": [
        {
          "name": "adId",
          "type": "uint256"
        }
      ],
      "name": "chargeingAd",
      "outputs": [],
      "payable": false,
      "stateMutability": "nonpayable",
      "type": "function"
    },
    {
      "inputs": [],
      "payable": true,
      "stateMutability": "payable",
      "type": "constructor"
    },
    {
      "payable": true,
      "stateMutability": "payable",
      "type": "fallback"
    }
  ],
  "bytecode": "0x606060405233601560006101000a81548173ffffffffffffffffffffffffffffffffffffffff021916908373ffffffffffffffffffffffffffffffffffffffff160217905550610559806100546000396000f300606060405260043610610078576000357c0100000000000000000000000000000000000000000000000000000000900463ffffffff1680634423c5f11461007a578063981e17db146100b15780639902b2ac14610114578063da4700ed1461013e578063ded9b21e14610167578063ed641fc214610193575b005b341561008557600080fd5b61009b60048080359060200190919050506101b6565b6040518082815260200191505060405180910390f35b34156100bc57600080fd5b6100d260048080359060200190919050506101d0565b604051808273ffffffffffffffffffffffffffffffffffffffff1673ffffffffffffffffffffffffffffffffffffffff16815260200191505060405180910390f35b61013c6004808035906020019091908035906020019091908035906020019091905050610205565b005b341561014957600080fd5b6101516102f2565b6040518082815260200191505060405180910390f35b341561017257600080fd5b61019160048080359060200190919080359060200190919050506103bc565b005b341561019e57600080fd5b6101b460048080359060200190919050506103d5565b005b600a81600a811015156101c557fe5b016000915090505481565b600081600a811015156101df57fe5b016000915054906101000a900473ffffffffffffffffffffffffffffffffffffffff1681565b33600084600a8110151561021557fe5b0160006101000a81548173ffffffffffffffffffffffffffffffffffffffff021916908373ffffffffffffffffffffffffffffffffffffffff16021790555081600a84600a8110151561026457fe5b018190555080601460003373ffffffffffffffffffffffffffffffffffffffff1673ffffffffffffffffffffffffffffffffffffffff168152602001908152602001600020819055503073ffffffffffffffffffffffffffffffffffffffff166108fc349081150290604051600060405180830381858888f1935050505015156102ed57600080fd5b505050565b6000806000806000925060009150600090505b600a8160ff1610156103b35781600a8260ff16600a8110151561032457fe5b01541180156103845750600a8160ff16600a8110151561034057fe5b0154601460003373ffffffffffffffffffffffffffffffffffffffff1673ffffffffffffffffffffffffffffffffffffffff16815260200190815260200160002054115b156103a6578060ff169250600a8160ff16600a811015156103a157fe5b015491505b8080600101915050610305565b82935050505090565b80600a83600a811015156103cc57fe5b01819055505050565b6000600a82600a811015156103e657fe5b0154905080601460003373ffffffffffffffffffffffffffffffffffffffff1673ffffffffffffffffffffffffffffffffffffffff1681526020019081526020016000205403601460003373ffffffffffffffffffffffffffffffffffffffff1673ffffffffffffffffffffffffffffffffffffffff168152602001908152602001600020819055503373ffffffffffffffffffffffffffffffffffffffff166108fc60028381151561049557fe5b049081150290604051600060405180830381858888f1935050505015156104bb57600080fd5b601560009054906101000a900473ffffffffffffffffffffffffffffffffffffffff1673ffffffffffffffffffffffffffffffffffffffff166108fc60028381151561050357fe5b049081150290604051600060405180830381858888f19350505050151561052957600080fd5b50505600a165627a7a72305820df1b611306e8ab538739bdb49cf87c6d93bef45025c982161a5273948fcb5fea0029",
  "source": "pragma solidity ^0.4.17;\n\ncontract Adx {\n\n  address[10] public advs;  // 广告主与广告计划\n  uint[10] public bids; // 出价表\n  mapping(address => uint) budgets; // 预算\n  address creator; // 合约创建者\n\n  function Adx() public payable {\n      creator = msg.sender;\n  }\n\n  // 创建广告\n  function createAd(uint adId, uint bid, uint budget) public payable{\n    advs[adId] = msg.sender;\n    bids[adId] = bid;\n    budgets[msg.sender] = budget;\n    this.transfer(msg.value);\n  }\n\n  // 修改出价\n  function modifyBid(uint adId, uint bid) public {\n      bids[adId] = bid;\n  }\n\n  // 获取竞价胜利广告\n  function getAd() public view returns (uint) {\n    uint adId = 0;\n    uint hightestBid = 0;\n    for (uint8 i = 0; i < bids.length; i++){\n        if(bids[i] > hightestBid && budgets[msg.sender] > bids[i]){\n            adId = i;\n            hightestBid = bids[i];\n        }\n    }\n    return adId;\n  }\n\n\n  // 计费（分钱）\n  function chargeingAd(uint adId) public {\n      uint bid = bids[adId];\n      budgets[msg.sender] = budgets[msg.sender] - bid;\n      msg.sender.transfer(bid / 2);\n      creator.transfer(bid / 2);\n  }\n\n  function () public payable {\n\n  }\n\n}",
  "sourcePath": "/Users/rapospectre/Projects/BlockChainProjects/pet-demo/contracts/Adx.sol",
  "compiler": {
    "name": "solc",
    "version": "0.4.18+commit.9cf6e910.Emscripten.clang"
  },
  "schemaVersion": "1.0.1",
  "updatedAt": "2018-01-27T21:12:29.188Z"
}